:020000040800F2
:10000000002800203D1A0008B10B0008B90B0008B9
:10001000C10B0008C90B0008D10B0008000000004C
:10002000000000000000000000000000D90B0008E4
:10003000E50B000800000000F10B0008FD0B0008B4
:10004000851A0008851A0008851A0008851A000814
:10005000851A0008851A0008851A0008851A000804
:10006000851A0008851A0008851A0008851A0008F4
:10007000851A0008851A0008851A0008851A0008E4
:10008000851A0008851A0008851A0008851A0008D4
:10009000851A0008851A0008851A0008851A0008C4
:1000A000851A0008851A0008851A0008851A0008B4
:1000B000090C0008851A000800000000851A0008D5
:1000C000851A00080000000000000000851A0008E2
:1000D00000000000851A0008851A000800000000D2
:1000E000851A0008851A0008851A0008000000001B
:1000F0000000000000000000000000000000000000
:0C01000000000000000000005FF808F1A3
:10010C0010B5054C237833B9044B13B10448AFF345
:10011C0000800123237010BDCC00002000000000E3
:10012C00BC30000808B5034B1BB103490348AFF3BF
:10013C00008008BD00000000D0000020BC3000088A
:10014C0080B483B000AF78607B681B69002B04D04F
:10015C007B6800221A61012300E0002318460C374B
:10016C00BD4680BC704780B483B000AF78607B68BC
:10017C005B69002B04D07B6800225A61012300E0EC
:10018C00002318460C37BD4680BC704780B483B042
:10019C0000AF78607B6800221A617B6800225A618C
:1001AC0000BF0C37BD4680BC704780B582B000AF35
:1001BC0078607B685A687B689A607B681A687B6891
:1001CC005A607B68DA697B681B8C1946104601F013
:1001DC0041FF03461A467B681A607B681A687B6885
:1001EC005B689A422FD17B685A687B689B689A42FD
:1001FC0029D17B689A687B68DB689A420FD07B6850
:10020C009A687B68DA607B68DB68002B1BD17B68A3
:10021C004FF4FA729A617B6801221A6113E07B68D1
:10022C009B695A1E7B689A617B689B69002B0ADC70
:10023C007B684FF4FA729A617B68DB68002B02D101
:10024C007B6801225A6100BF0837BD4680BD0000A3
:10025C0080B582B000AF00237B600CE07A68134657
:10026C00DB0013449B00084A13441846FFF79DFF1C
:10027C007B6801337B607B68042BEFDD00BF00BF24
:10028C000837BD4680BD00BF0000002080B586B099
:10029C0000AF07F1080300221A605A609A60DA6016
:1002AC00284B9B69274A43F004039361254B9B69B8
:1002BC0003F004037B607B68224B9B69214A43F06B
:1002CC00080393611F4B9B6903F008033B603B6879
:1002DC00002240F6FE711C4801F0D3FE0022FF21E3
:1002EC001A4801F0CEFE40F6FE73BB600123FB60A2
:1002FC0000233B6102237B6107F108031946124876
:10030C0001F02CFDFF23BB600123FB6000233B614C
:10031C0002237B6107F1080319460C4801F01EFD0E
:10032C004FF46043BB600023FB6000233B6107F18B
:10033C0008031946054801F011FD00BF1837BD46EA
:10034C0080BD00BF0010024000080140000C0140BD
:10035C0080B500AF00224FF480710B4801F091FE84
:10036C0000224FF40071084801F08BFE00224FF47C
:10037C008061054801F085FE00224FF400610248BF
:10038C0001F07FFE00BF80BD0008014080B582B047
:10039C0000AF78607B68032B6ED801A252F823F073
:1003AC00BD030008EF0300082104000853040008F3
:1003BC0001224FF48071334801F063FE00224FF4A8
:1003CC000071304801F05DFE00224FF480612D4831
:1003DC0001F057FE00224FF400612A4801F051FE53
:1003EC004BE000224FF48071264801F04AFE0122B6
:1003FC004FF40071234801F044FE00224FF4806159
:10040C00204801F03EFE00224FF400611D4801F02F
:10041C0038FE32E000224FF480711A4801F031FEB0
:10042C0000224FF40071174801F02BFE01224FF40B
:10043C008061144801F025FE00224FF40061114840
:10044C0001F01FFE19E000224FF480710D4801F0FD
:10045C0018FE00224FF400710A4801F012FE00222F
:10046C004FF48061074801F00CFE01224FF400614B
:10047C00044801F006FE00E000BF00BF0837BD468F
:10048C0080BD00BF0008014080B400AF184B1B7842
:10049C00184AA2FB0323DB08DAB2174B1A70144B71
:1004AC001A78144BA3FB0213D9080B469B000B4480
:1004BC005B00D31ADAB2104B5A70104B1B780D4AF2
:1004CC00A2FB0323DB08DAB20B4B9A700B4B1A78A6
:1004DC00084BA3FB0213D9080B469B000B445B0093
:1004EC00D31ADAB2044BDA7000BFBD4680BC704739
:1004FC00E8000020CDCCCCCCEC000020E9000020A2
:10050C0080B500AF174B1B78032B27D801A252F8EC
:10051C0023F000BF310500083F0500084D05000819
:10052C005B050008002000F01FF80E4B01221A702A
:10053C0015E0012000F018F80A4B02221A700EE0A8
:10054C00022000F011F8074B03221A7007E0032079
:10055C0000F00AF8034B00221A7000E000BF00BF45
:10056C0080BD00BFF000002080B582B000AF786085
:10057C00FFF7EEFE064A7B6813441B78184600F022
:10058C0009F87868FFF702FF00BF0837BD4680BD49
:10059C00EC00002080B582B000AF78607B68092B3E
:1005AC0000F2B48101A252F823F000BFE10500086B
:1005BC003306000885060008D7060008290700083E
:1005CC007B070008CD0700081F0800087108000809
:1005DC00C308000800220121CB4801F052FD002283
:1005EC000221C94801F04DFD00220421C64801F04A
:1005FC0048FD00220821C44801F043FD00221021CF
:10060C00C14801F03EFD00222021BF4801F039FD18
:10061C0001224021BC4801F034FD01228021BA485E
:10062C0001F02FFD9BE101220121B74801F029FDCA
:10063C0000220221B44801F024FD00220421B2481A
:10064C0001F01FFD01220821AF4801F01AFD012223
:10065C001021AD4801F015FD01222021AA4801F01E
:10066C0010FD01224021A84801F00BFD0122802140
:10067C00A54801F006FD72E100220121A24801F01B
:10068C0000FD00220221A04801F0FBFC0122042104
:10069C009D4801F0F6FC002208219B4801F0F1FC7A
:1006AC0000221021984801F0ECFC012220219648F0
:1006BC0001F0E7FC00224021934801F0E2FC01220A
:1006CC008021914801F0DDFC49E1002201218E4896
:1006DC0001F0D7FC002202218B4801F0D2FC002251
:1006EC000421894801F0CDFC00220821864801F044
:1006FC00C8FC01221021844801F0C3FC01222021F6
:10070C00814801F0BEFC002240217F4801F0B9FC79
:10071C00012280217C4801F0B4FC20E1012201215E
:10072C00794801F0AEFC00220221774801F0A9FCC7
:10073C0000220421744801F0A4FC01220821724813
:10074C0001F09FFC012210216F4801F09AFC00225D
:10075C0020216D4801F095FC002240216A4801F0EF
:10076C0090FC01228021684801F08BFCF7E000220C
:10077C000121654801F085FC01220221624801F04B
:10078C0080FC00220421604801F07BFC002208213F
:10079C005D4801F076FC012210215B4801F071FCF0
:1007AC0000222021584801F06CFC002240215648C0
:1007BC0001F067FC01228021534801F062FCCEE07D
:1007CC0000220121504801F05CFC012202214E481C
:1007DC0001F057FC002204214B4801F052FC00228E
:1007EC000821494801F04DFC00221021464801F037
:1007FC0048FC00222021444801F043FC0022402107
:10080C00414801F03EFC012280213F4801F039FCB7
:10081C00A5E0002201213C4801F033FC002202211A
:10082C00394801F02EFC00220421374801F029FC44
:10083C0001220821344801F024FC01221021324805
:10084C0001F01FFC012220212F4801F01AFC01228B
:10085C0040212D4801F015FC012280212A4801F08D
:10086C0010FC7CE000220121274801F00AFC002248
:10087C000221254801F005FC00220421224801F048
:10088C0000FC00220821204801F0FBFB0022102173
:10089C001D4801F0F6FB002220211B4801F0F1FB62
:1008AC0000224021184801F0ECFB0122802116485F
:1008BC0001F0E7FB53E000220121134801F0E1FBBA
:1008CC0000220221104801F0DCFB002204210E481A
:1008DC0001F0D7FB002208210B4801F0D2FB0122CA
:1008EC001021094801F0CDFB00222021064801F01F
:1008FC00C8FB00224021044801F0C3FB01228021E7
:10090C00014801F0BEFB2AE0000C0140002201214D
:10091C00154801F0B6FB00220221134801F0B1FB8F
:10092C0000220421104801F0ACFB002208210E48E3
:10093C0001F0A7FB002210210B4801F0A2FB0022C2
:10094C002021094801F09DFB01224021064801F0BD
:10095C0098FB01228021044801F093FB00BF00BFEB
:10096C000837BD4680BD00BF000C014080B500AF0C
:10097C0001F084F800F017F8FFF788FC00F04EF94E
:10098C0000F04CF8042000F0B5F80346002B05D01D
:10099C00FFF75EFC0A21042000F064F800F050F828
:1009AC0000F054F8EEE780B590B000AF07F11803F3
:1009BC0028220021184602F04FFB3B1D00221A6032
:1009CC005A609A60DA601A610223BB610123BB6230
:1009DC001023FB6200237B6307F11803184601F018
:1009EC0081FB0346002B01D000F036F80F237B600F
:1009FC000023BB600023FB6000233B6100237B6171
:100A0C003B1D0021184601F0EFFD0346002B01D0E1
:100A1C0000F022F800BF4037BD4680BD80B500AF66
:100A2C00064801F08DFF0A21042000F01BF84FF45A
:100A3C00FA71052000F016F800BF80BD44010020BB
:100A4C0080B500AF00F05AF900BF80BD80B500AF93
:100A5C0000F062FC00BF80BD80B400AF72B600BF76
:100A6C0000BFFDE780B483B000AF786039600849FF
:100A7C007B683A6841F83320054A7B68DB001344F5
:100A8C0000225A6000BF0C37BD4680BC704700BFC7
:100A9C00F400002080B483B000AF00237B601DE025
:100AAC00134A7B6852F83330002B14DD104A7B68F4
:100ABC0052F833305A1E0E497B6841F833200C4AE9
:100ACC007B6852F83330002B05DC094A7B68DB006D
:100ADC00134401225A607B6801337B607B68092BCD
:100AEC00DEDD00BF00BF0C37BD4680BC704700BFC9
:100AFC00F400002080B483B000AF7860074A7B68B4
:100B0C00DB0013445B68002B01D0012300E00023C1
:100B1C0018460C37BD4680BC704700BFF40000205F
:100B2C0080B582B000AF78607B681B68B3F1804FF2
:100B3C0001D1FFF7AFFF00BF0837BD4680BD0000F5
:100B4C0080B485B000AF154B9B69144A43F0010388
:100B5C009361124B9B6903F00103BB60BB680F4BA5
:100B6C00DB690E4A43F08053D3610C4BDB6903F015
:100B7C0080537B607B680A4B5B68FB60FB6823F0EF
:100B8C00E063FB60FB6843F08063FB60044AFB6836
:100B9C00536000BF1437BD4680BC70470010024044
:100BAC000000014080B400AF00BFFDE780B400AF8F
:100BBC0000BFFDE780B400AF00BFFDE780B400AF1D
:100BCC0000BFFDE780B400AF00BFFDE780B400AF0D
:100BDC0000BFBD4680BC704780B400AF00BFBD46AF
:100BEC0080BC704780B400AF00BFBD4680BC70476E
:100BFC0080B500AF00F088FF00BF80BD80B500AFAE
:100C0C00024801F0E9FE00BF80BD00BF4401002096
:100C1C0080B400AF00BFBD4680BC704780B586B0C5
:100C2C0000AF07F1080300221A605A609A60DA607C
:100C3C003B4600221A605A601D4B4FF080421A60EE
:100C4C001B4B40F21F325A60194B00229A60184B12
:100C5C000922DA60164B00221A61154B00229A61A8
:100C6C00134801F01DFE0346002B01D0FFF7F4FEE4
:100C7C004FF48053BB6007F1080319460C4801F090
:100C8C009BFF0346002B01D0FFF7E6FE00233B60E1
:100C9C0000237B603B461946054802F073F9034676
:100CAC00002B01D0FFF7D8FE00BF1837BD4680BD22
:100CBC004401002080B584B000AF78607B681B686D
:100CCC00B3F1804F13D10C4BDB690B4A43F001039A
:100CDC00D361094BDB6903F00103FB60FB68002265
:100CEC0000211C2001F003F81C2001F01CF800BFAF
:100CFC001037BD4680BD00BF0010024080B500AF6C
:100D0C00504B1B78012B40F091804F4B1B78072BDD
:100D1C0000F28E8001A252F823F000BF490D0008AA
:100D2C00550D0008850D0008910D0008C10D000837
:100D3C00CD0D0008FD0D0008090E000800F08AF822
:100D4C00414B01221A707CE000F026FA0020FFF7DC
:100D5C00D1FE0346002B02D03B4B02221A703B48BB
:100D6C00FFF7EEF90346002B64D0364B02221A70C3
:100D7C00374B00221A705DE000F0AAF8324B0322C8
:100D8C001A705EE000F038FA0020FFF7B3FE03465D
:100D9C00002B02D02C4B04221A702C48FFF7D0F9F0
:100DAC000346002B48D0274B03221A70284B0022F5
:100DBC001A7041E000F0C2F8234B05221A7040E093
:100DCC0000F04AFA0020FFF795FE0346002B02D0F4
:100DDC001D4B06221A701D48FFF7B2F90346002B73
:100DEC002CD0184B03221A70194B00221A7025E0D4
:100DFC0000F0E2F8144B07221A7022E000F05CFAC3
:100E0C000020FFF777FE0346002B02D00E4B00228A
:100E1C001A700E48FFF794F90346002B10D0094BBB
:100E2C0003221A700A4B00221A7009E000BF08E076
:100E3C0000BF06E000BF04E000BF02E000BF00E01E
:100E4C0000BF80BDB4000020F10000200000002095
:100E5C00F200002080B500AFFFF77AFA00F0E2F85C
:100E6C001448FFF793F91448FFF790F91348FFF76C
:100E7C008DF9134B1B781A464FF47A7302FB03F36C
:100E8C0019460020FFF7EEFD0A210120FFF7EAFDCD
:100E9C004FF47A710220FFF7E5FD0A4B1A780A4BE2
:100EAC001A70074B1A78094B1A70FFF7EDFA00BF4E
:100EBC0080BD00BF0000002024000020480000205E
:100ECC00BC000020BD000020E8000020E90000204C
:100EDC0080B500AFFFF73CFA00F0A4F81248FFF71A
:100EEC0055F91248FFF752F91148FFF74FF9114B1A
:100EFC001B781A464FF47A7302FB03F31946002051
:100F0C00FFF7B0FD0A210120FFF7ACFD4FF47A7119
:100F1C000220FFF7A7FD074B1A78074B1A70FFF753
:100F2C00B3FA00BF80BD00BF0000002024000020E9
:100F3C0048000020BE000020E900002080B500AF72
:100F4C00FFF706FA00F06EF81448FFF71FF9144883
:100F5C00FFF71CF91348FFF719F9134B1B781A46C6
:100F6C004FF47A7302FB03F319460020FFF77AFD66
:100F7C000A210120FFF776FD4FF47A710220FFF76A
:100F8C0071FD094B1A78094B1A70094B1A78094BE9
:100F9C001A70FFF779FA00BF80BD00BF0000002077
:100FAC002400002048000020BC000020E8000020A5
:100FBC00BD000020E900002080B500AFFFF7C8F9A4
:100FCC0000F030F81248FFF7E1F81248FFF7DEF8AE
:100FDC001148FFF7DBF8114B1B781A464FF47A7364
:100FEC0002FB03F319460020FFF73CFD0A21012008
:100FFC00FFF738FD4FF47A710220FFF733FD074BF2
:10100C001A78074B1A70FFF73FFA00BF80BD00BF7C
:10101C00000000202400002048000020BE0000201A
:10102C00E800002080B500AF01220421114801F036
:10103C0028F8012208210F4801F023F80122102181
:10104C000C4801F01EF8012220210A4801F019F881
:10105C0001224021074801F014F8012280210548A3
:10106C0001F00FF801220221024801F00AF800BF3A
:10107C0080BD00BF0008014080B500AF01220421F3
:10108C000E4800F0FEFF012208210C4800F0F9FF89
:10109C0000221021094800F0F4FF0022202107480B
:1010AC0000F0EFFF01224021044800F0EAFF01228A
:1010BC008021024800F0E5FF00BF80BD0008014020
:1010CC0080B500AF012204210E4800F0DAFF0122A6
:1010DC0008210C4800F0D5FF00221021094800F02F
:1010EC00D0FF01222021074800F0CBFF0022402135
:1010FC00044800F0C6FF01228021024800F0C1FF25
:10110C0000BF80BD0008014080B500AF0022042163
:10111C000E4800F0B6FF012208210C4800F0B1FF88
:10112C0001221021094800F0ACFF012220210748C0
:10113C0000F0A7FF01224021044800F0A2FF00228A
:10114C008021024800F09DFF00BF80BD00080140D7
:10115C0080B500AF012204210E4800F092FF00225E
:10116C0008210C4800F08DFF01221021094800F0E5
:10117C0088FF01222021074800F083FF0122402133
:10118C00044800F07EFF00228021024800F079FF25
:10119C0000BF80BD0008014080B500AFFFF76CFFB9
:1011AC000220FFF7A7FC0346002B12D04FF47A71F4
:1011BC000220FFF757FC0E4B1B78013BDAB20C4BAD
:1011CC001A700C4B1B78013BDAB20A4B1A70FFF702
:1011DC005BF90120FFF78EFC0346002B05D00A219A
:1011EC000120FFF73FFCFFF78BF900BF80BD00BF6C
:1011FC00E8000020E900002080B500AFFFF760FF99
:10120C000220FFF777FC0346002B12D04FF47A71C3
:10121C000220FFF727FC0E4B1B78013BDAB20C4B7C
:10122C001A700C4B1B78013BDAB20A4B1A70FFF7A1
:10123C002BF90120FFF75EFC0346002B05D00A2199
:10124C000120FFF70FFCFFF75BF900BF80BD00BF6B
:10125C00E8000020E900002080B500AFFFF754FF44
:10126C000220FFF747FC0346002B12D04FF47A7193
:10127C000220FFF7F7FB0E4B1B78013BDAB20C4B4D
:10128C001A700C4B1B78013BDAB20A4B1A70FFF741
:10129C00FBF80120FFF72EFC0346002B05D00A219A
:1012AC000120FFF7DFFBFFF72BF900BF80BD00BF6C
:1012BC00E8000020E900002080B500AFFFF748FFF0
:1012CC000220FFF717FC0346002B12D04FF47A7163
:1012DC000220FFF7C7FB0E4B1B78013BDAB20C4B1D
:1012EC001A700C4B1B78013BDAB20A4B1A70FFF7E1
:1012FC00CBF80120FFF7FEFB0346002B05D00A219B
:10130C000120FFF7AFFBFFF7FBF800BF80BD00BF6C
:10131C00E8000020E900002080B500AF634B1B788B
:10132C00022B40F0B280624B1B780B2B00F2AF808B
:10133C0001A252F823F000BF7513000895130008A2
:10134C00B31300089B1400089B1400089B1400089E
:10135C00D1130008FB130008251400084F140008D3
:10136C00671400087F14000800F0ACF9504B0622FB
:10137C001A705048FEF7E4FE0346002B00F08980FB
:10138C004B4B01221A7084E000F0CAF9484B07223B
:10139C001A704848FEF7D4FE0346002B7BD0444B12
:1013AC0002221A7077E000F0EBF9414B08221A7018
:1013BC004048FEF7C5FE0346002B6ED03C4B002286
:1013CC001A706AE000F07CF83B48FEF7B9FE034661
:1013DC00002B02D0364B09221A703648FEF7B0FEAD
:1013EC000346002B5BD0324B01221A7057E000F001
:1013FC00BDF83148FEF7A4FE0346002B02D02C4B5F
:10140C000A221A702B48FEF79BFE0346002B48D08D
:10141C00274B02221A7044E000F0FEF82648FEF733
:10142C008FFE0346002B02D0214B0B221A70214851
:10143C00FEF786FE0346002B35D01D4B00221A709A
:10144C0031E000F0CDF91D4B00221A70184B002230
:10145C001A70164B01221A7026E000F007FA174B8F
:10146C0000221A70124B00221A70104B01221A70B3
:10147C001AE000F02DFA114B00221A700C4B0022CE
:10148C001A700A4B01221A700EE000BF0CE000BF6C
:10149C000AE000BF08E000BF06E000BF04E000BFA8
:1014AC0002E000BF00E000BF80BD00BFB400002020
:1014BC00F20000200000002048000020F100002075
:1014CC0080B500AF2548FEF73BFE0346002B05D048
:1014DC00234B1B780133DAB2214B1A701F48FEF7ED
:1014EC0042FE0346002B05D01D4B1B780533DAB2A8
:1014FC001B4B1A701A4B1B78632B02D9184B012209
:10150C001A70174B1A78174B1A70FEF7BDFF032091
:10151C00FFF7F0FA0346002B0CD08021124800F0A4
:10152C00C8FD1021104800F0C4FD4FF4FA710320DF
:10153C00FFF798FA0120FFF7DDFA0346002B0AD0DB
:10154C000A210120FFF78EFA00220221064800F042
:10155C0098FDFEF7D5FF00BF80BD00BF2400002022
:10156C00C0000020E80000200008014080B500AF5A
:10157C002548FEF7E5FD0346002B05D0234B1B78D1
:10158C000133DAB2214B1A701F48FEF7ECFD03460B
:10159C00002B05D01D4B1B780533DAB21B4B1A7090
:1015AC001A4B1B78632B02D9184B01221A70174B5C
:1015BC001A78174B1A70FEF767FF0320FFF79AFA99
:1015CC000346002B0CD04021124800F072FD08217C
:1015DC00104800F06EFD4FF4FA710320FFF742FA49
:1015EC000120FFF787FA0346002B0AD005210120C2
:1015FC00FFF738FA00220221064800F042FDFEF700
:10160C007FFF00BF80BD00BF24000020C100002070
:10161C00E80000200008014080B500AF2548FEF727
:10162C008FFD0346002B05D0234B1B780133DAB218
:10163C00214B1A701F48FEF796FD0346002B05D070
:10164C001D4B1B780533DAB21B4B1A701A4B1B78E7
:10165C00632B02D9184B01221A70174B1A78174BAF
:10166C001A70FEF711FF0320FFF744FA0346002B14
:10167C000CD02021124800F01CFD0421104800F071
:10168C0018FD4FF4FA710320FFF7ECF90120FFF776
:10169C0031FA0346002B0AD005210120FFF7E2F9AD
:1016AC0000220221064800F0ECFCFEF729FF00BFE7
:1016BC0080BD00BF24000020BF000020E8000020F7
:1016CC000008014080B500AF00F034F90E48FEF779
:1016DC005DFD0E48FEF75AFD4FF4FA710320FFF73B
:1016EC00C1F90A210120FFF7BDF9094B1A78094B02
:1016FC001A70084B1A78084B1A70084B02221A7091
:10170C00FEF7C2FE00BF80BD000000204800002094
:10171C00BD000020C0000020E8000020E9000020EF
:10172C0080B500AFFEF732FE00F02EF90E48FEF742
:10173C002DFD0E48FEF72AFD4FF4FA710320FFF73A
:10174C0091F90A210120FFF78DF9094B1A78094B01
:10175C001A70084B1A78084B1A70084B03221A702F
:10176C00FEF792FE00BF80BD000000204800002064
:10177C00BE000020C1000020E8000020E90000208D
:10178C0080B500AFFEF702FE00F028F90E48FEF718
:10179C00FDFC0E48FEF7FAFC4FF4FA710320FFF73C
:1017AC0061F90A210120FFF75DF9094B1A78094B01
:1017BC001A70084B1A78084B1A70084B04221A70CE
:1017CC00FEF762FE00BF80BD000000204800002034
:1017DC00BC000020BF000020E8000020E900002031
:1017EC0080B400AF1D4B1A781D4B1B789A420BD955
:1017FC001A4B1A781B4B1A701A4B1A78184B1B7809
:10180C00D31ADAB2184B1A70144B1A78144B1B7883
:10181C009A421FD8114B1B78012B0AD80F4B1A7800
:10182C00104B1A700F4B1A780F4B1A700C4B00227E
:10183C001A700A4B1B78012B0CD9084B1A78094BE0
:10184C001A70084B1B78013BDAB2074B1A70044B29
:10185C0001221A7000BFBD4680BC7047C00000203A
:10186C00BE000020BD000020BC00002080B400AFF2
:10187C00134B1A78134B1B789A420BD3104B1A78D4
:10188C00114B1A70104B1A78104B1B781344DAB2A8
:10189C000C4B1A700A4B1A780A4B1B789A420BD2D3
:1018AC00074B1A78084B1A70074B1A78074B1B78A2
:1018BC001344DAB2034B1A7000BFBD4680BC7047AC
:1018CC00C1000020BD000020BE000020BC00002094
:1018DC0080B400AF134B1A78134B1B789A420BD37E
:1018EC00104B1A78114B1A70114B1A780F4B1B783E
:1018FC001344DAB20C4B1A700A4B1A780A4B1B7849
:10190C009A420BD2074B1A78084B1A70064B1A786E
:10191C00064B1B78D31ADAB2054B1A7000BFBD46C2
:10192C0080BC7047BF000020BD000020BC00002020
:10193C00BE00002080B500AF01220421114800F048
:10194C00A0FB012208210F4800F09BFB0022102174
:10195C000C4800F096FB012220210A4800F091FB74
:10196C0001224021074800F08CFB00228021054811
:10197C0000F087FB01220221024800F082FB00BF2D
:10198C0080BD00BF0008014080B500AF01220421DA
:10199C00114800F076FB002208210F4800F071FB83
:1019AC00012210210C4800F06CFB012220210A4876
:1019BC0000F067FB00224021074800F062FB012287
:1019CC008021054800F05DFB01220221024800F055
:1019DC0058FB00BF80BD00BF0008014080B500AFC0
:1019EC0000220421114800F04CFB012208210F4871
:1019FC0000F047FB012210210C4800F042FB0022B2
:101A0C0020210A4800F03DFB01224021074800F04C
:101A1C0038FB01228021054800F033FB0122022112
:101A2C00024800F02EFB00BF80BD00BF0008014043
:101A3C00FFF7EEF80B480C490C4A002302E0D4588F
:101A4C00C4500433C4188C42F9D3094A094C0023FE
:101A5C0001E013600432A242FBD301F005FBFEF758
:101A6C0085FF704700000020CC00002000310008EA
:101A7C00CC00002090010020FEE7000080B500AFF4
:101A8C00084B1B68074A43F010031360032000F057
:101A9C0023F90F2000F008F8FFF752F8002318463E
:101AAC0080BD00BF0020024080B582B000AF7860DE
:101ABC00124B1A68124B1B7819464FF47A73B3FB0E
:101ACC00F1F3B2FBF3F3184600F03BF90346002B9D
:101ADC0001D001230EE07B680F2B0AD80022796815
:101AEC004FF0FF3000F003F9064A7B6813600023C7
:101AFC0000E0012318460837BD4680BDB800002021
:101B0C00C8000020C400002080B400AF054B1B7837
:101B1C001A46054B1B681344034A136000BFBD46AD
:101B2C0080BC7047C80000208C01002080B400AF3E
:101B3C00024B1B681846BD4680BC70478C010020C8
:101B4C0080B485B000AF78607B6803F00703FB605E
:101B5C000C4BDB68BB60BA684FF6FF031340BB60ED
:101B6C00FB681A02BB68134343F0BF6343F40033B2
:101B7C00BB60044ABB68D36000BF1437BD4680BC51
:101B8C00704700BF00ED00E080B400AF044BDB6891
:101B9C001B0A03F007031846BD4680BC704700BF04
:101BAC0000ED00E080B483B000AF0346FB7197F901
:101BBC000730002B0BDBFB7903F01F02064997F96A
:101BCC0007305B09012000FA02F241F8232000BF24
:101BDC000C37BD4680BC704700E100E080B483B098
:101BEC0000AF03463960FB7197F90730002B0ADB15
:101BFC003B68DAB20C4997F907301201D2B20B44A8
:101C0C0083F800230AE03B68DAB20849FB7903F059
:101C1C000F03043B1201D2B20B441A7600BF0C37EF
:101C2C00BD4680BC704700BF00E100E000ED00E065
:101C3C0080B489B000AFF860B9607A60FB6803F0DB
:101C4C000703FB61FB69C3F10703042B28BF0423C3
:101C5C00BB61FB690433062B02D9FB69033B00E033
:101C6C0000237B614FF0FF32BB6902FA03F3DA43C6
:101C7C00BB681A407B699A404FF0FF317B6901FACF
:101C8C0003F3D9437B680B40134318462437BD46F6
:101C9C0080BC704780B582B000AF78607B68013B38
:101CAC00B3F1807F01D301230FE00A4A7B68013B2B
:101CBC0053600F214FF0FF30FFF790FF054B0022D0
:101CCC009A60044B07221A60002318460837BD4659
:101CDC0080BD00BF10E000E080B582B000AF78603E
:101CEC007868FFF72DFF00BF0837BD4680BD80B573
:101CFC0086B000AF0346B9607A60FB7300237B614A
:101D0C00FFF742FF78617A68B9687869FFF790FF4E
:101D1C00024697F90F3011461846FFF75FFF00BFD8
:101D2C001837BD4680BD80B582B000AF0346FB714D
:101D3C0097F907301846FFF735FF00BF0837BD4647
:101D4C0080BD80B582B000AF78607868FFF7A2FFE5
:101D5C00034618460837BD4680BD000080B48BB0E2
:101D6C0000AF7860396000237B6200233B6261E145
:101D7C0001227B6A02FA03F3FB613B681B68FA6978
:101D8C001340BB61BA69FB699A4240F050813B68D1
:101D9C005B68974A93425ED0954A934275D8954AB0
:101DAC00934258D0934A93426FD8934A934252D05D
:101DBC00914A934269D8914A93424CD08F4A9342AC
:101DCC0063D88F4A934246D08D4A93425DD8122BEA
:101DDC002AD8122B59D801A252F823F0631E0008FE
:101DEC003D1E00084F1E0008911E0008971E00089B
:101DFC00971E0008971E0008971E0008971E0008E3
:101E0C00971E0008971E0008971E0008971E0008D2
:101E1C00971E0008971E0008971E0008971E0008C2
:101E2C00451E0008591E0008764A934213D02CE038
:101E3C003B68DB683B6229E03B68DB6804333B6250
:101E4C0024E03B68DB6808333B621FE03B68DB68DF
:101E5C000C333B621AE03B689B68002B02D10423D5
:101E6C003B6213E03B689B68012B05D108233B6266
:101E7C007B68FA691A6109E008233B627B68FA699E
:101E8C005A6103E000233B6200E000BFBB69FF2BFB
:101E9C0001D87B6801E07B6804337B61BB69FF2B55
:101EAC0002D87B6A9B0002E07B6A083B9B003B618B
:101EBC007B691A680F213B6901FA03F3DB431A4073
:101ECC00396A3B6901FA03F31A437B691A603B6870
:101EDC005B6803F08053002B00F0A9804A4B9B6990
:101EEC00494A43F001039361474B9B6903F001039B
:101EFC00BB60BB68454A7B6A9B08023352F82330AF
:101F0C00FB607B6A03F003039B000F2202FA03F3CE
:101F1C00DB43FA681340FB607B683D4A93420DD06B
:101F2C007B683C4A934207D07B683B4A934201D181
:101F3C00022304E0032302E0012300E000237A6A79
:101F4C0002F0030292009340FA681343FB602F499E
:101F5C007B6A9B080233FA6841F823203B685B6874
:101F6C0003F48013002B06D02C4B9A682B49BB69C9
:101F7C0013438B6006E0294B9A68BB69DB43274906
:101F8C0013408B603B685B6803F40013002B06D096
:101F9C00224BDA682149BB691343CB6006E01F4B27
:101FAC00DA68BB69DB431D491340CB603B685B6857
:101FBC0003F40033002B06D0184B5A681749BB6941
:101FCC0013434B6006E0154B5A68BB69DB4313495E
:101FDC0013404B603B685B6803F48033002B1FD0CD
:101FEC000E4B1A680D49BB6913430B601FE000BF11
:101FFC0000003210000031100000221000002110EF
:10200C0000001210000011100010024000000140EE
:10201C0000080140000C0140001001400004014088
:10202C000B4B1A68BB69DB43094913400B607B6A95
:10203C0001337B623B681A687B6A22FA03F3002B3C
:10204C007FF496AE00BF00BF2C37BD4680BC7047F6
:10205C000004014080B485B000AF78600B467B80F3
:10206C007B689A687B881340002B02D00123FB739A
:10207C0001E00023FB73FB7B18461437BD4680BC84
:10208C00704780B483B000AF78600B467B801346FA
:10209C007B707B78002B03D07A887B681A6103E015
:1020AC007B881A047B681A6100BF0C37BD4680BC64
:1020BC00704780B485B000AF78600B467B807B683E
:1020CC00DB68FB607A88FB6813401A04FB68D94311
:1020DC007B880B401A437B681A6100BF1437BD46DE
:1020EC0080BC704780B586B000AF78607B68002BF1
:1020FC0001D1012372E27B681B6803F00103002B02
:10210C0000F08780924B5B6803F00C03042B0CD01F
:10211C008F4B5B6803F00C03082B12D18C4B5B6864
:10212C0003F48033B3F5803F0BD1894B1B6803F468
:10213C000033002B6CD07B685B68002B68D10123CB
:10214C004CE27B685B68B3F5803F06D1804B1B6823
:10215C007F4A43F4803313602EE07B685B68002B6E
:10216C000CD17B4B1B687A4A23F480331360784B79
:10217C001B68774A23F4802313601DE07B685B683F
:10218C00B3F5A02F0CD1724B1B68714A43F480231A
:10219C0013606F4B1B686E4A43F4803313600BE083
:1021AC006B4B1B686A4A23F480331360684B1B68C3
:1021BC00674A23F4802313607B685B68002B13D081
:1021CC00FFF7B4FC386108E0FFF7B0FC02463B694E
:1021DC00D31A642B01D9032300E25D4B1B6803F473
:1021EC000033002BF0D014E0FFF7A0FC386108E0BE
:1021FC00FFF79CFC02463B69D31A642B01D90323DD
:10220C00ECE1534B1B6803F40033002BF0D100E0DE
:10221C0000BF7B681B6803F00203002B63D04C4BA0
:10222C005B6803F00C03002B0BD0494B5B6803F08D
:10223C000C03082B1CD1464B5B6803F48033002B3A
:10224C0016D1434B1B6803F00203002B05D07B68AF
:10225C001B69012B01D00123C0E13D4B1B6823F00E
:10226C00F8027B685B69DB00394913430B603AE089
:10227C007B681B69002B20D0364B01221A60FFF7BC
:10228C0055FC386108E0FFF751FC02463B69D31A54
:10229C00022B01D90323A1E12D4B1B6803F0020390
:1022AC00002BF0D02A4B1B6823F0F8027B685B698B
:1022BC00DB00274913430B6015E0264B00221A6004
:1022CC00FFF734FC386108E0FFF730FC02463B694D
:1022DC00D31A022B01D9032380E11D4B1B6803F099
:1022EC000203002BF0D17B681B6803F00803002B62
:1022FC003AD07B689B69002B19D0174B01221A60CE
:10230C00FFF714FC386108E0FFF710FC02463B694C
:10231C00D31A022B01D9032360E10D4B5B6A03F046
:10232C000203002BF0D0012000F09CFA1CE00A4BB9
:10233C0000221A60FFF7FAFB38610FE0FFF7F6FB9B
:10234C0002463B69D31A022B08D9032346E100BF8E
:10235C00001002400000424280044242924B5B6AF1
:10236C0003F00203002BE9D17B681B6803F0040324
:10237C00002B00F0A6800023FB758B4BDB6903F070
:10238C008053002B0DD1884BDB69874A43F0805377
:10239C00D361854BDB6903F08053BB60BB680123C1
:1023AC00FB75824B1B6803F48073002B18D17F4B99
:1023BC001B687E4A43F480731360FFF7B7FB3861E8
:1023CC0008E0FFF7B3FB02463B69D31A642B01D933
:1023DC00032303E1754B1B6803F48073002BF0D0CF
:1023EC007B68DB68012B06D16F4B1B6A6E4A43F08E
:1023FC00010313622DE07B68DB68002B0CD16A4B68
:10240C001B6A694A23F001031362674B1B6A664A15
:10241C0023F0040313621CE07B68DB68052B0CD1F2
:10242C00614B1B6A604A43F0040313625E4B1B6AE8
:10243C005D4A43F0010313620BE05B4B1B6A5A4A83
:10244C0023F001031362584B1B6A574A23F0040311
:10245C0013627B68DB68002B15D0FFF767FB3861D4
:10246C000AE0FFF763FB02463B69D31A41F288325C
:10247C00934201D90323B1E04B4B1B6A03F00203D7
:10248C00002BEED014E0FFF751FB38610AE0FFF7A8
:10249C004DFB02463B69D31A41F28832934201D973
:1024AC0003239BE0404B1B6A03F00203002BEED18D
:1024BC00FB7D012B05D13C4BDB693B4A23F0805360
:1024CC00D3617B68DB69002B00F08780364B5B683F
:1024DC0003F00C03082B61D07B68DB69022B46D11F
:1024EC00334B00221A60FFF721FB386108E0FFF73D
:1024FC001DFB02463B69D31A022B01D903236DE065
:10250C00294B1B6803F00073002BF0D17B681B6A0E
:10251C00B3F5803F08D1244B5B6823F400327B6811
:10252C009B68214913434B601F4B5B6823F4741267
:10253C007B68196A7B685B6A0B431B4913434B60CE
:10254C001B4B01221A60FFF7F1FA386108E0FFF724
:10255C00EDFA02463B69D31A022B01D903233DE065
:10256C00114B1B6803F00073002BF0D035E0104BBF
:10257C0000221A60FFF7DAFA386108E0FFF7D6FAA2
:10258C0002463B69D31A022B01D9032326E0064BE2
:10259C001B6803F00073002BF0D11EE07B68DB6935
:1025AC00012B07D1012319E00010024000700040FC
:1025BC00600042420B4B5B68FB60FB6803F48032AB
:1025CC007B681B6A9A4206D1FB6803F470127B6825
:1025DC005B6A9A4201D0012300E0002318461837A9
:1025EC00BD4680BD0010024080B584B000AF78605D
:1025FC0039607B68002B01D10123D0E06A4B1B684A
:10260C0003F007033A689A4210D9674B1B6823F012
:10261C00070265493B6813430B60634B1B6803F06F
:10262C0007033A689A4201D00123B8E07B681B6823
:10263C0003F00203002B20D07B681B6803F004031B
:10264C00002B05D0594B5B68584A43F4E063536048
:10265C007B681B6803F00803002B05D0534B5B68A9
:10266C00524A43F460535360504B5B6823F0F002C2
:10267C007B689B684D4913434B607B681B6803F078
:10268C000103002B40D07B685B68012B07D1474BC3
:10269C001B6803F40033002B15D101237FE07B680A
:1026AC005B68022B07D1414B1B6803F00073002BB6
:1026BC0009D1012373E03D4B1B6803F00203002B8F
:1026CC0001D101236BE0394B5B6823F003027B687B
:1026DC005B68364913434B60FFF728FAF8600AE051
:1026EC00FFF724FA0246FB68D31A41F28832934270
:1026FC0001D9032353E02D4B5B6803F00C027B687C
:10270C005B689B009A42EBD1274B1B6803F00703D5
:10271C003A689A4210D2244B1B6823F007022249D4
:10272C003B6813430B60204B1B6803F007033A68AC
:10273C009A4201D0012332E07B681B6803F004034A
:10274C00002B08D0194B5B6823F4E0627B68DB68D4
:10275C00164913434B607B681B6803F00803002B7E
:10276C0009D0124B5B6823F460527B681B69DB0059
:10277C000E4913434B6000F021F802460B4B5B688B
:10278C001B0903F00F030A49CB5C22FA03F3094A35
:10279C001360094B1B681846FFF786F9002318468F
:1027AC001037BD4680BD00BF002002400010024023
:1027BC00D4300008B8000020C400002080B487B0DA
:1027CC0000AF0023FB600023BB6000237B61002370
:1027DC007B6000233B611E4B5B68FB60FB6803F076
:1027EC000C03042B02D0082B03D027E0194B3B61C0
:1027FC0027E0FB689B0C03F00F03174AD35C7B604C
:10280C00FB6803F48033002B10D0114B5B685B0C1E
:10281C0003F00103114AD35CBB607B680D4A03FBD8
:10282C0002F2BB68B2FBF3F37B6104E07B680C4AF9
:10283C0002FB03F37B617B693B6102E0054B3B616F
:10284C0000BF3B6918461C37BD4680BC704700BFB3
:10285C000010024000127A00E4300008F430000846
:10286C0000093D0080B485B000AF78600A4B1B684E
:10287C000A4AA2FB03235B0A7A6802FB03F3FB60A0
:10288C0000BFFB685A1EFA60002BF9D100BF00BFD5
:10289C001437BD4680BC7047B8000020D34D621081
:1028AC0080B582B000AF78607B68002B01D101232A
:1028BC0041E07B6893F83D30DBB2002B06D17B689E
:1028CC00002283F83C207868FEF7F4F97B6802223A
:1028DC0083F83D207B681A687B68043319461046E0
:1028EC0000F056FA7B68012283F846207B680122AF
:1028FC0083F83E207B68012283F83F207B6801220D
:10290C0083F840207B68012283F841207B680122F8
:10291C0083F842207B68012283F843207B680122E4
:10292C0083F844207B68012283F845207B680122D0
:10293C0083F83D20002318460837BD4680BD0000B3
:10294C0080B485B000AF78607B6893F83D30DBB223
:10295C00012B01D0012335E07B68022283F83D2056
:10296C007B681B68DA687B681B6842F00102DA60DE
:10297C007B681B68164A934209D07B681B68B3F1CD
:10298C00804F04D07B681B68124A934211D17B683C
:10299C001B689B6803F00703FB60FB68062B10D0D9
:1029AC007B681B681A687B681B6842F001021A601E
:1029BC0007E07B681B681A687B681B6842F00102A1
:1029CC001A60002318461437BD4680BC704700BF00
:1029DC00002C01400004004080B584B000AF78604A
:1029EC007B681B68DB68FB607B681B681B69BB60D2
:1029FC00BB6803F00203002B20D0FB6803F002033A
:102A0C00002B1BD07B681B686FF002021A617B687D
:102A1C0001221A777B681B689B6903F00303002B68
:102A2C0003D0786800F098F905E0786800F08BF92D
:102A3C00786800F09AF97B6800221A77BB6803F07B
:102A4C000403002B20D0FB6803F00403002B1BD0E5
:102A5C007B681B686FF004021A617B6802221A778C
:102A6C007B681B689B6903F44073002B03D0786868
:102A7C0000F072F905E0786800F065F9786800F00C
:102A8C0074F97B6800221A77BB6803F00803002BEB
:102A9C0020D0FB6803F00803002B1BD07B681B685D
:102AAC006FF008021A617B6804221A777B681B6836
:102ABC00DB6903F00303002B03D0786800F04CF9BA
:102ACC0005E0786800F03FF9786800F04EF97B6813
:102ADC0000221A77BB6803F01003002B20D0FB6890
:102AEC0003F01003002B1BD07B681B686FF01002E7
:102AFC001A617B6808221A777B681B68DB6903F410
:102B0C004073002B03D0786800F026F905E0786854
:102B1C0000F019F9786800F028F97B6800221A7720
:102B2C00BB6803F00103002B0CD0FB6803F001031E
:102B3C00002B07D07B681B686FF001021A61786864
:102B4C00FDF7EEFFBB6803F08003002B0CD0FB6895
:102B5C0003F08003002B07D07B681B686FF08002AA
:102B6C001A61786800F06FFABB6803F04003002B21
:102B7C000CD0FB6803F04003002B07D07B681B686C
:102B8C006FF040021A61786800F0F8F8BB6803F047
:102B9C002003002B0CD0FB6803F02003002B07D084
:102BAC007B681B686FF020021A61786800F042FAAB
:102BBC0000BF1037BD4680BD80B584B000AF7860D3
:102BCC0039600023FB737B6893F83C30012B01D1F7
:102BDC000223B4E07B68012283F83C207B6802224C
:102BEC0083F83D207B681B689B68BB60BB6823F047
:102BFC007703BB60BB6823F47F43BB607B681B68B7
:102C0C00BA689A603B681B68B3F5005F3ED0B3F5B9
:102C1C00005F00F28780B3F5805F00F08680B3F52B
:102C2C00805F7FD8702B1AD0702B7BD8602B50D044
:102C3C00602B77D8502B3CD0502B73D8402B58D0CE
:102C4C00402B6FD8302B64D0302B6BD8202B60D01E
:102C5C00202B67D8002B5CD0102B5AD062E07B68FD
:102C6C0018683B6899683B685A683B68DB6800F0F9
:102C7C006AF97B681B689B68BB60BB6843F0770391
:102C8C00BB607B681B68BA689A604FE07B68186809
:102C9C003B6899683B685A683B68DB6800F053F9FD
:102CAC007B681B689A687B681B6842F480429A6058
:102CBC003CE07B6818683B6859683B68DB681A46DF
:102CCC0000F0CAF87B681B685021184600F021F907
:102CDC002CE07B6818683B6859683B68DB681A46CF
:102CEC0000F0E8F87B681B686021184600F011F9C9
:102CFC001CE07B6818683B6859683B68DB681A46BF
:102D0C0000F0AAF87B681B684021184600F001F916
:102D1C000CE07B681A683B681B681946104600F08B
:102D2C00F8F803E00123FB7300E000BF7B6801228D
:102D3C0083F83D207B68002283F83C20FB7B1846FF
:102D4C001037BD4680BD80B483B000AF786000BF43
:102D5C000C37BD4680BC704780B483B000AF786040
:102D6C0000BF0C37BD4680BC704780B483B000AF49
:102D7C00786000BF0C37BD4680BC704780B483B010
:102D8C0000AF786000BF0C37BD4680BC70470000B8
:102D9C0080B485B000AF786039607B681B68FB60DD
:102DAC007B682B4A934207D07B68B3F1804F03D0EA
:102DBC007B68284A934208D1FB6823F07003FB60C0
:102DCC003B685B68FA681343FB607B68204A93425C
:102DDC0007D07B68B3F1804F03D07B681D4A9342C8
:102DEC0008D1FB6823F44073FB603B68DB68FA682E
:102DFC001343FB60FB6823F080023B685B69134361
:102E0C00FB607B68FA681A603B689A687B68DA62D8
:102E1C003B681A687B689A627B680D4A934203D1BF
:102E2C003B681A697B681A637B6801225A617B686C
:102E3C001B6903F00103002B05D07B681B6923F091
:102E4C0001027B681A6100BF1437BD4680BC704715
:102E5C00002C01400004004080B487B000AFF86043
:102E6C00B9607A60FB681B6A7B61FB681B6A23F0A4
:102E7C000102FB681A62FB689B693B613B6923F0AA
:102E8C00F0033B617B681B013A6913433B617B692F
:102E9C0023F00A037B617A69BB6813437B61FB688F
:102EAC003A699A61FB687A691A6200BF1C37BD46A1
:102EBC0080BC704780B487B000AFF860B9607A60AE
:102ECC00FB681B6A7B61FB681B6A23F01002FB68C2
:102EDC001A62FB689B693B613B6923F470433B615D
:102EEC007B681B033A6913433B617B6923F0A003A6
:102EFC007B61BB681B017A6913437B61FB683A6990
:102F0C009A61FB687A691A6200BF1C37BD4680BCA7
:102F1C00704780B485B000AF786039607B689B687F
:102F2C00FB60FB6823F07003FB603A68FB6813439B
:102F3C0043F00703FB607B68FA689A6000BF1437A4
:102F4C00BD4680BC704780B487B000AFF860B960F4
:102F5C007A603B60FB689B687B617B6923F47F43F1
:102F6C007B613B681A027B681A43BB6813437A691E
:102F7C0013437B61FB687A699A6000BF1C37BD46BE
:102F8C0080BC704780B485B000AF786039607B68D6
:102F9C0093F83C30012B01D1022341E07B680122E4
:102FAC0083F83C207B68022283F83D207B681B68F9
:102FBC005B68FB607B681B689B68BB60FB6823F0ED
:102FCC007003FB603B681B68FA681343FB607B680B
:102FDC001B68FA685A607B681B68144A934209D0D4
:102FEC007B681B68B3F1804F04D07B681B68104A68
:102FFC0093420CD1BB6823F08003BB603B685B68D9
:10300C00BA681343BB607B681B68BA689A607B68BC
:10301C00012283F83D207B68002283F83C200023AA
:10302C0018461437BD4680BC704700BF002C0140C9
:10303C000004004080B483B000AF786000BF0C3750
:10304C00BD4680BC704780B483B000AF786000BFD1
:10305C000C37BD4680BC704703460244934200D1F6
:10306C00704703F8011BF9E770B500260C4D0D4CA9
:10307C00641BA410A64209D100F01AF800260A4DD0
:10308C000A4C641BA410A64205D170BD55F8043B34
:10309C0098470136EEE755F8043B98470136F2E7BE
:1030AC00F8300008F8300008F8300008FC30000850
:1030BC00F8B500BFF8BC08BC9E467047F8B500BF19
:0830CC00F8BC08BC9E467047E9
:1030D40000000000000000000102030406070809C4
:1030E40002030405060708090A0B0C0D0E0F101045
:0430F40001020000D5
:0430F800310100089A
:0430FC000D010008BA
:1031000001000000010000000100000001000000BB
:103110000000000000000000F4010000000C01406D
:10312000002000000100000001000000010000007C
:10313000010000000000000000000000F401000099
:10314000000C0140004000000100000001000000F0
:10315000010000000100000000000000000000006D
:10316000F4010000000C014000800000010000009C
:10317000010000000100000001000000000000004C
:1031800000000000F4010000000C0140008000007D
:10319000010000000100000001000000010000002B
:1031A0000000000000000000F4010000000C0140DD
:1031B000008000000100000000127A000D0F020DD7
:0C31C0000F0200001000000001000000E1
:0400000508001A3D98
:00000001FF
