:020000040800F2
:1000000000280020491A0008B50B0008BD0B0008A5
:10001000C50B0008CD0B0008D50B00080000000040
:10002000000000000000000000000000DD0B0008E0
:10003000E90B000800000000F50B0008010C0008A7
:10004000911A0008911A0008911A0008911A0008E4
:10005000911A0008911A0008911A0008911A0008D4
:10006000911A0008911A0008911A0008911A0008C4
:10007000911A0008911A0008911A0008911A0008B4
:10008000911A0008911A0008911A0008911A0008A4
:10009000911A0008911A0008911A0008911A000894
:1000A000911A0008911A0008911A0008911A000884
:1000B0000D0C0008911A000800000000911A0008B9
:1000C000911A00080000000000000000911A0008CA
:1000D00000000000911A0008911A000800000000BA
:1000E000911A0008911A0008911A000800000000F7
:1000F0000000000000000000000000000000000000
:0C01000000000000000000005FF808F1A3
:10010C0010B5054C237833B9044B13B10448AFF345
:10011C0000800123237010BDCC00002000000000E3
:10012C00C830000808B5034B1BB103490348AFF3B3
:10013C00008008BD00000000D0000020C83000087E
:10014C0080B483B000AF78607B681B69002B04D04F
:10015C007B6800221A61012300E0002318460C374B
:10016C00BD4680BC704780B483B000AF78607B68BC
:10017C005B69002B04D07B6800225A61012300E0EC
:10018C00002318460C37BD4680BC704780B483B042
:10019C0000AF78607B6800221A617B6800225A618C
:1001AC0000BF0C37BD4680BC704780B582B000AF35
:1001BC0078607B685A687B689A607B681A687B6891
:1001CC005A607B68DA697B681B8C1946104601F013
:1001DC0047FF03461A467B681A607B681A687B687F
:1001EC005B689A422FD17B685A687B689B689A42FD
:1001FC0029D17B689A687B68DB689A420FD07B6850
:10020C009A687B68DA607B68DB68002B1BD17B68A3
:10021C004FF4FA729A617B6801221A6113E07B68D1
:10022C009B695A1E7B689A617B689B69002B0ADC70
:10023C007B684FF4FA729A617B68DB68002B02D101
:10024C007B6801225A6100BF0837BD4680BD0000A3
:10025C0080B582B000AF00237B600CE07A68134657
:10026C00DB0013449B00084A13441846FFF79DFF1C
:10027C007B6801337B607B68042BEFDD00BF00BF24
:10028C000837BD4680BD00BF0000002080B586B099
:10029C0000AF07F1080300221A605A609A60DA6016
:1002AC00294B9B69284A43F004039361264B9B69B5
:1002BC0003F004037B607B68234B9B69224A43F069
:1002CC0008039361204B9B6903F008033B603B6878
:1002DC00002240F6FE711D4801F0D9FE002241F6C5
:1002EC00FF011B4801F0D3FE40F6FE73BB600123F7
:1002FC00FB6000233B6102237B6107F10803194675
:10030C00124801F031FD41F6FF03BB600123FB6095
:10031C0000233B6102237B6107F1080319460C485B
:10032C0001F022FD4FF46043BB600023FB6000230F
:10033C003B6107F108031946054801F015FD00BFA4
:10034C001837BD4680BD00BF0010024000080140B8
:10035C00000C014080B500AF00224FF480710B48B7
:10036C0001F095FE00224FF40071084801F08FFE59
:10037C0000224FF48061054801F089FE00224FF401
:10038C000061024801F083FE00BF80BD00080140FF
:10039C0080B582B000AF78607B68032B6ED801A269
:1003AC0052F823F0C1030008F303000825040008E9
:1003BC005704000801224FF48071334801F067FEA6
:1003CC0000224FF40071304801F061FE00224FF41E
:1003DC0080612D4801F05BFE00224FF400612A4839
:1003EC0001F055FE4BE000224FF48071264801F0DD
:1003FC004EFE01224FF40071234801F048FE00220A
:10040C004FF48061204801F042FE00224FF400615D
:10041C001D4801F03CFE32E000224FF480711A4876
:10042C0001F035FE00224FF40071174801F02FFE49
:10043C0001224FF48061144801F029FE00224FF490
:10044C000061114801F023FE19E000224FF4807185
:10045C000D4801F01CFE00224FF400710A4801F017
:10046C0016FE00224FF48061074801F010FE0122B5
:10047C004FF40061044801F00AFE00E000BF00BF29
:10048C000837BD4680BD00BF0008014080B400AFF6
:10049C00184B1B78184AA2FB0323DB08DAB2174B64
:1004AC001A70144B1A78144BA3FB0213D9080B4681
:1004BC009B000B445B00D31ADAB2104B5A70104BF2
:1004CC001B780D4AA2FB0323DB08DAB20B4B9A70A4
:1004DC000B4B1A78084BA3FB0213D9080B469B0055
:1004EC000B445B00D31ADAB2044BDA7000BFBD4682
:1004FC0080BC7047E8000020CDCCCCCCEC000020B8
:10050C00E900002080B500AF174B1B78032B27D8D0
:10051C0001A252F823F000BF35050008430500087E
:10052C00510500085F050008002000F01FF80E4B75
:10053C0001221A7015E0012000F018F80A4B022273
:10054C001A700EE0022000F011F8074B03221A700B
:10055C0007E0032000F00AF8034B00221A7000E0B9
:10056C0000BF00BF80BD00BFF000002080B582B08E
:10057C0000AF7860FFF7EEFE064A7B6813441B78E9
:10058C00184600F009F87868FFF702FF00BF08373B
:10059C00BD4680BDEC00002080B582B000AF786015
:1005AC007B68092B00F2B48101A252F823F000BF42
:1005BC00E50500083706000889060008DB06000878
:1005CC002D0700087F070008D10700082308000842
:1005DC0075080008C708000800220121CB4801F06B
:1005EC0056FD00220221C94801F051FD00220421D0
:1005FC00C64801F04CFD00220821C44801F047FD1B
:10060C0000221021C14801F042FD00222021BF48E8
:10061C0001F03DFD01224021BC4801F038FD0122D2
:10062C008021BA4801F033FD9BE101220121B7483A
:10063C0001F02DFD00220221B44801F028FD00221A
:10064C000421B24801F023FD01220821AF4801F03A
:10065C001EFD01221021AD4801F019FD01222021BF
:10066C00AA4801F014FD01224021A84801F00FFD19
:10067C0001228021A54801F00AFD72E1002201212E
:10068C00A24801F004FD00220221A04801F0FFFC69
:10069C00012204219D4801F0FAFC002208219B480C
:1006AC0001F0F5FC00221021984801F0F0FC012229
:1006BC002021964801F0EBFC00224021934801F0E8
:1006CC00E6FC01228021914801F0E1FC49E1002285
:1006DC0001218E4801F0DBFC002202218B4801F045
:1006EC00D6FC00220421894801F0D1FC002208210B
:1006FC00864801F0CCFC01221021844801F0C7FC93
:10070C0001222021814801F0C2FC002240217F48B7
:10071C0001F0BDFC012280217C4801F0B8FC20E1F5
:10072C0001220121794801F0B2FC00220221774814
:10073C0001F0ADFC00220421744801F0A8FC012258
:10074C000821724801F0A3FC012210216F4801F02E
:10075C009EFC002220216D4801F099FC00224021D2
:10076C006A4801F094FC01228021684801F08FFC5A
:10077C00F7E000220121654801F089FC01220221E9
:10078C00624801F084FC00220421604801F07FFCE7
:10079C00002208215D4801F07AFC012210215B48FF
:1007AC0001F075FC00222021584801F070FC002259
:1007BC004021564801F06BFC01228021534801F086
:1007CC0066FCCEE000220121504801F060FC0122C1
:1007DC0002214E4801F05BFC002204214B4801F041
:1007EC0056FC00220821494801F051FC002210213E
:1007FC00464801F04CFC00222021444801F047FC03
:10080C0000224021414801F042FC012280213F4856
:10081C0001F03DFCA5E0002201213C4801F037FC31
:10082C0000220221394801F032FC00220421374811
:10083C0001F02DFC01220821344801F028FC012292
:10084C001021324801F023FC012220212F4801F015
:10085C001EFC012240212D4801F019FC01228021AF
:10086C002A4801F014FC7CE000220121274801F009
:10087C000EFC00220221254801F009FC0022042173
:10088C00224801F004FC00220821204801F0FFFB63
:10089C00002210211D4801F0FAFB002220211B48E8
:1008AC0001F0F5FB00224021184801F0F0FB012279
:1008BC008021164801F0EBFB53E000220121134884
:1008CC0001F0E5FB00220221104801F0E0FB0022C0
:1008DC0004210E4801F0DBFB002208210B4801F03B
:1008EC00D6FB01221021094801F0D1FB0022202166
:1008FC00064801F0CCFB00224021044801F0C7FB64
:10090C0001228021014801F0C2FB2AE0000C0140C9
:10091C0000220121154801F0BAFB002202211348E4
:10092C0001F0B5FB00220421104801F0B0FB0022BD
:10093C0008210E4801F0ABFB002210210B4801F0FE
:10094C00A6FB00222021094801F0A1FB0122402135
:10095C00064801F09CFB01228021044801F097FB22
:10096C0000BF00BF0837BD4680BD00BF000C014072
:10097C0080B500AF01F088F800F017F8FFF786FC9F
:10098C0000F04EF900F04CF8042000F0B5F80346E6
:10099C00002B05D0FFF75CFC0A21042000F064F862
:1009AC0000F050F800F054F8EEE780B590B000AFCE
:1009BC0007F1180328220021184602F053FB3B1DB7
:1009CC0000221A605A609A60DA601A610223BB61D5
:1009DC000123BB621023FB6200237B6307F1180326
:1009EC00184601F085FB0346002B01D000F036F8C9
:1009FC000F237B600023BB600023FB6000233B6163
:100A0C0000237B613B1D0021184601F0F3FD0346DA
:100A1C00002B01D000F022F800BF4037BD4680BD4E
:100A2C0080B500AF064801F091FF0A21042000F0C8
:100A3C001BF84FF4FA71052000F016F800BF80BDCA
:100A4C004401002080B500AF00F05AF900BF80BD12
:100A5C0080B500AF00F062FC00BF80BD80B400AF79
:100A6C0072B600BF00BFFDE780B483B000AF786002
:100A7C00396008497B683A6841F83320054A7B683D
:100A8C00DB00134400225A6000BF0C37BD4680BC0B
:100A9C00704700BFF400002080B483B000AF002387
:100AAC007B601DE0134A7B6852F83330002B14DD59
:100ABC00104A7B6852F833305A1E0E497B6841F855
:100ACC0033200C4A7B6852F83330002B05DC094A82
:100ADC007B68DB00134401225A607B6801337B6026
:100AEC007B68092BDEDD00BF00BF0C37BD4680BC28
:100AFC00704700BFF400002080B483B000AF786072
:100B0C00074A7B68DB0013445B68002B01D0012390
:100B1C0000E0002318460C37BD4680BC704700BF70
:100B2C00F400002080B582B000AF78607B681B6851
:100B3C00B3F1804F01D1FFF7AFFF00BF0837BD46BF
:100B4C0080BD000080B485B000AF154B9B69144A82
:100B5C0043F001039361124B9B6903F00103BB60EB
:100B6C00BB680F4BDB690E4A43F08053D3610C4BCF
:100B7C00DB6903F080537B607B680A4B5B68FB602E
:100B8C00FB6823F0E063FB60FB6843F08063FB6071
:100B9C00044AFB68536000BF1437BD4680BC7047E5
:100BAC00001002400000014080B400AF00BFFDE720
:100BBC0080B400AF00BFFDE780B400AF00BFFDE71D
:100BCC0080B400AF00BFFDE780B400AF00BFFDE70D
:100BDC0080B400AF00BFBD4680BC704780B400AF8E
:100BEC0000BFBD4680BC704780B400AF00BFBD469F
:100BFC0080BC704780B500AF00F08CFF00BF80BD9B
:100C0C0080B500AF024801F0EDFE00BF80BD00BF13
:100C1C004401002080B400AF00BFBD4680BC7047CB
:100C2C0080B586B000AF07F1080300221A605A6045
:100C3C009A60DA603B4600221A605A601D4B4FF0F6
:100C4C0080421A601B4B40F21F325A60194B002233
:100C5C009A60184B0922DA60164B00221A61154B68
:100C6C0000229A61134801F021FE0346002B01D0AB
:100C7C00FFF7F4FE4FF48053BB6007F108031946ED
:100C8C000C4801F09FFF0346002B01D0FFF7E6FE56
:100C9C0000233B6000237B603B461946054802F06D
:100CAC0077F90346002B01D0FFF7D8FE00BF1837A9
:100CBC00BD4680BD4401002080B584B000AF786093
:100CCC007B681B68B3F1804F13D10C4BDB690B4A6B
:100CDC0043F00103D361094BDB6903F00103FB60B3
:100CEC00FB68002200211C2001F007F81C2001F0F9
:100CFC0020F800BF1037BD4680BD00BF0010024079
:100D0C0080B500AF504B1B78012B40F091804F4BBE
:100D1C001B78072B00F28E8001A252F823F000BF43
:100D2C004D0D0008590D0008890D0008950D00089F
:100D3C00C50D0008D10D0008010E00080D0E0008AD
:100D4C0000F08AF8414B01221A707CE000F026FA80
:100D5C000020FFF7D1FE0346002B02D03B4B0222B2
:100D6C001A703B48FFF7ECF90346002B64D0364B66
:100D7C0002221A70374B00221A705DE000F0AAF8BC
:100D8C00324B03221A705EE000F038FA0020FFF7B5
:100D9C00B3FE0346002B02D02C4B04221A702C48B5
:100DAC00FFF7CEF90346002B48D0274B02221A70CE
:100DBC00284B00221A7041E000F0C2F8234B0522A8
:100DCC001A7040E000F04AFA0020FFF795FE034647
:100DDC00002B02D01D4B06221A701D48FFF7B0F9EC
:100DEC000346002B2CD0184B02221A70194B0022F0
:100DFC001A7025E000F0E2F8144B07221A7022E07A
:100E0C0000F05CFA0020FFF777FE0346002B02D0BF
:100E1C000E4B00221A700E48FFF792F90346002B76
:100E2C0010D0094B02221A700A4B00221A7009E0EA
:100E3C0000BF08E000BF06E000BF04E000BF02E016
:100E4C0000BF00E000BF80BDB4000020F100002016
:100E5C0000000020F200002080B500AFFFF77AFA06
:100E6C0000F0E2F81448FFF791F91448FFF78EF9F7
:100E7C001348FFF78BF9134B1B781A464FF47A7310
:100E8C0002FB03F319460020FFF7EEFD0A210120B7
:100E9C00FFF7EAFD4FF47A710220FFF7E5FD0A4BEC
:100EAC001A780A4B1A70074B1A78094B1A70FFF70D
:100EBC00EDFA00BF80BD00BF000000202400002020
:100ECC0048000020BC000020BD000020E8000020ED
:100EDC00E900002080B500AFFFF73CFA00F0A4F861
:100EEC001248FFF753F91248FFF750F91148FFF772
:100EFC004DF9114B1B781A464FF47A7302FB03F32E
:100F0C0019460020FFF7B0FD0A210120FFF7ACFDC8
:100F1C004FF47A710220FFF7A7FD074B1A78074BA5
:100F2C001A70FFF7B3FA00BF80BD00BF00000020AD
:100F3C002400002048000020BE000020E900002012
:100F4C0080B500AFFFF706FA00F06EF81448FFF713
:100F5C001DF91448FFF71AF91348FFF717F9134B4B
:100F6C001B781A464FF47A7302FB03F319460020E0
:100F7C00FFF77AFD0A210120FFF776FD4FF47A7115
:100F8C000220FFF771FD094B1A78094B1A70094BB7
:100F9C001A78094B1A70FFF779FA00BF80BD00BFB1
:100FAC00000000202400002048000020BC0000208D
:100FBC00E8000020BD000020E900002080B500AF53
:100FCC00FFF7C8F900F030F81248FFF7DFF81248C5
:100FDC00FFF7DCF81148FFF7D9F8114B1B781A46CC
:100FEC004FF47A7302FB03F319460020FFF73CFD24
:100FFC000A210120FFF738FD4FF47A710220FFF728
:10100C0033FD074B1A78074B1A70FFF73FFA00BFF6
:10101C0080BD00BF000000202400002048000020FC
:10102C00BE000020E800002080B500AF01220421A2
:10103C00114801F02CF8012208210F4801F027F883
:10104C00012210210C4801F022F8012220210A482B
:10105C0001F01DF801224021074801F018F8012287
:10106C008021054801F013F801220221024801F009
:10107C000EF800BF80BD00BF0008014080B500AF76
:10108C00012204210E4801F002F8012208210C482B
:10109C0000F0FDFF00221021094800F0F8FF0022AB
:1010AC002021074800F0F3FF01224021044800F002
:1010BC00EEFF01228021024800F0E9FF00BF80BD55
:1010CC000008014080B500AF012204210E4800F059
:1010DC00DEFF012208210C4800F0D9FF002210216C
:1010EC00094800F0D4FF01222021074800F0CFFF6F
:1010FC0000224021044800F0CAFF0122802102484E
:10110C0000F0C5FF00BF80BD0008014080B500AFF6
:10111C00002204210E4800F0BAFF012208210C48DD
:10112C0000F0B5FF01221021094800F0B0FF0122A8
:10113C002021074800F0ABFF01224021044800F0B9
:10114C00A6FF00228021024800F0A1FF00BF80BD55
:10115C000008014080B500AF012204210E4800F0C8
:10116C0096FF002208210C4800F091FF012210216B
:10117C00094800F08CFF01222021074800F087FF6E
:10118C0001224021044800F082FF00228021024805
:10119C0000F07DFF00BF80BD0008014080B500AFAE
:1011AC00FFF76CFF0220FFF7A7FC0346002B12D0C1
:1011BC004FF47A710220FFF757FC0E4B1B78013B62
:1011CC00DAB20C4B1A700C4B1B78013BDAB20A4B9F
:1011DC001A70FFF75BF90120FFF78EFC0346002B1A
:1011EC0005D00A210120FFF73FFCFFF78BF900BF68
:1011FC0080BD00BFE8000020E900002080B500AFF2
:10120C00FFF760FF0220FFF777FC0346002B12D09C
:10121C004FF47A710220FFF727FC0E4B1B78013B31
:10122C00DAB20C4B1A700C4B1B78013BDAB20A4B3E
:10123C001A70FFF72BF90120FFF75EFC0346002B19
:10124C0005D00A210120FFF70FFCFFF75BF900BF67
:10125C0080BD00BFE8000020E900002080B500AF91
:10126C00FFF754FF0220FFF747FC0346002B12D078
:10127C004FF47A710220FFF7F7FB0E4B1B78013B02
:10128C00DAB20C4B1A700C4B1B78013BDAB20A4BDE
:10129C001A70FFF7FBF80120FFF72EFC0346002B1A
:1012AC0005D00A210120FFF7DFFBFFF72BF900BF68
:1012BC0080BD00BFE8000020E900002080B500AF31
:1012CC00FFF748FF0220FFF717FC0346002B12D054
:1012DC004FF47A710220FFF7C7FB0E4B1B78013BD2
:1012EC00DAB20C4B1A700C4B1B78013BDAB20A4B7E
:1012FC001A70FFF7CBF80120FFF7FEFB0346002B1B
:10130C0005D00A210120FFF7AFFBFFF7FBF800BF68
:10131C0080BD00BFE8000020E900002080B500AFD0
:10132C005C4B1B78022B40F0A5805B4B1B780B2B86
:10133C0000F2A28001A252F823F000BF791300083A
:10134C0097130008B51300088514000885140008CD
:10135C0085140008D3130008FD1300082714000897
:10136C005D140008691400087514000800F09EF95B
:10137C00494B06221A704948FEF7E2FE0346002B41
:10138C007CD0454B01221A7078E000F0C3F9424B37
:10139C0007221A704148FEF7D3FE0346002B6FD08C
:1013AC003D4B02221A706BE000F0EAF93A4B08222E
:1013BC001A703A48FEF7C4FE0346002B62D0364B37
:1013CC0000221A705EE000F06FF83548FEF7B8FEA8
:1013DC000346002B02D0304B09221A702F48FEF71F
:1013EC00AFFE0346002B4FD02B4B01221A704BE063
:1013FC0000F0B0F82A48FEF7A3FE0346002B02D0FB
:10140C00254B0A221A702548FEF79AFE0346002B3C
:10141C003CD0214B02221A7038E000F0F1F8204841
:10142C00FEF78EFE0346002B02D01B4B0B221A70CC
:10143C001A48FEF785FE0346002B29D0154B0122D6
:10144C001A70184B00221A70134B00221A701FE0EE
:10145C0000F0CCF9104B00221A701AE000F00CFAD4
:10146C000D4B01221A7014E000F038FA0A4B0222DC
:10147C001A700EE000BF0CE000BF0AE000BF08E0ED
:10148C0000BF06E000BF04E000BF02E000BF00E0C8
:10149C0000BF80BDB4000020F2000020000000203E
:1014AC0048000020F100002080B500AF2548FEF771
:1014BC0047FE0346002B05D0234B1B780133DAB2D1
:1014CC00214B1A701F48FEF74EFE0346002B05D029
:1014DC001D4B1B780533DAB21B4B1A701A4B1B7859
:1014EC00632B02D9184B01221A70174B1A78174B21
:1014FC001A70FEF7CBFF0320FFF7FEFA0346002B12
:10150C000CD08021124800F0DAFD1021104800F0B8
:10151C00D6FD4FF4FA710320FFF7A6FA0120FFF76E
:10152C00EBFA0346002B0AD00A210120FFF79CFAA4
:10153C0000220221064800F0AAFDFEF7E3FF00BFDF
:10154C0080BD00BF24000020C0000020E800002067
:10155C000008014080B500AF2548FEF7F1FD0346B9
:10156C00002B05D0234B1B780133DAB2214B1A70B8
:10157C001F48FEF7F8FD0346002B05D01D4B1B78CA
:10158C000533DAB21B4B1A701A4B1B78632B02D93A
:10159C00184B01221A70174B1A78174B1A70FEF75A
:1015AC0075FF0320FFF7A8FA0346002B0CD040214F
:1015BC00124800F084FD0821104800F080FD4FF423
:1015CC00FA710320FFF750FA0120FFF795FA034652
:1015DC00002B0AD00A210120FFF746FA0022022133
:1015EC00064800F054FDFEF78DFF00BF80BD00BF24
:1015FC0024000020C1000020E80000200008014069
:10160C0080B500AF2548FEF79BFD0346002B05D0A7
:10161C00234B1B780133DAB2214B1A701F48FEF7AB
:10162C00A2FD0346002B05D01D4B1B780533DAB207
:10163C001B4B1A701A4B1B78632B02D9184B0122C7
:10164C001A70174B1A78174B1A70FEF71FFF0320EE
:10165C00FFF752FA0346002B0CD02021124800F061
:10166C002EFD0421104800F02AFD4FF4FA710320DE
:10167C00FFF7FAF90120FFF73FFA0346002B0AD0D7
:10168C000A210120FFF7F0F900220221064800F0A0
:10169C00FEFCFEF737FF00BF80BD00BF240000201A
:1016AC00BF000020E80000200008014080B500AF1A
:1016BC0000F046F91048FEF769FD1048FEF766FD8C
:1016CC000F48FEF763FD4FF4FA710320FFF7CCF9D6
:1016DC000A210120FFF7C8F90A4B1A780A4B1A7035
:1016EC00094B1A78094B1A70094B02221A70FEF733
:1016FC00CDFE00BF80BD00BF0000002024000020F4
:10170C0048000020BD000020C0000020E8000020A0
:10171C00E900002080B500AFFEF73AFE00F03AF980
:10172C001048FEF733FD1048FEF730FD0F48FEF76A
:10173C002DFD4FF4FA710320FFF796F90A210120D1
:10174C00FFF792F90A4B1A780A4B1A70094B1A7860
:10175C00094B1A70094B03221A70FEF797FE00BF53
:10176C0080BD00BF000000202400002048000020A5
:10177C00BE000020C1000020E8000020E90000208D
:10178C0080B500AFFEF704FE00F02EF91048FEF70E
:10179C00FDFC1048FEF7FAFC0F48FEF7F7FC4FF47F
:1017AC00FA710320FFF760F90A210120FFF75CF9B9
:1017BC000A4B1A780A4B1A70094B1A78094B1A7093
:1017CC00094B04221A70FEF761FE00BF80BD00BFFA
:1017DC00000000202400002048000020BC00002055
:1017EC00BF000020E8000020E900002080B400AF1A
:1017FC001D4B1A781D4B1B789A420BD91A4B1A7831
:10180C001B4B1A701A4B1A78184B1B78D31ADAB276
:10181C00184B1A70144B1A78144B1B789A421FD819
:10182C00114B1B78012B0AD80F4B1A78104B1A70DE
:10183C000F4B1A780F4B1A700C4B00221A700A4B74
:10184C001B78012B0CD9084B1A78094B1A70084BD2
:10185C001B78013BDAB2074B1A70044B01221A7049
:10186C0000BFBD4680BC7047C0000020BE000020F9
:10187C00BD000020BC00002080B400AF134B1A78D0
:10188C00134B1B789A420BD3104B1A78114B1A70CE
:10189C00104B1A78104B1B781344DAB20C4B1A709D
:1018AC000A4B1A780A4B1B789A420BD2074B1A78C0
:1018BC00084B1A70074B1A78074B1B781344DAB293
:1018CC00034B1A7000BFBD4680BC7047C10000209E
:1018DC00BD000020BE000020BC00002080B400AF82
:1018EC00134B1A78134B1B789A420BD3104B1A7864
:1018FC00114B1A70114B1A780F4B1B781344DAB238
:10190C000C4B1A700A4B1A780A4B1B789A420BD262
:10191C00074B1A78084B1A70064B1A78064B1B7833
:10192C00D31ADAB2054B1A7000BFBD4680BC7047A3
:10193C00BF000020BD000020BC000020BE00002025
:10194C0080B500AF01220421114800F0A0FB012258
:10195C0008210F4800F09BFB002210210C4800F0DE
:10196C0096FB012220210A4800F091FB0122402124
:10197C00074800F08CFB00228021054800F087FB13
:10198C0001220221024800F082FB00BF80BD00BF93
:10199C000008014080B500AF01220421114800F07D
:1019AC0076FB002208210F4800F071FB0122102168
:1019BC000C4800F06CFB012220210A4800F067FB68
:1019CC0000224021074800F062FB012280210548DB
:1019DC0000F05DFB01220221024800F058FB00BF21
:1019EC0080BD00BF0008014080B500AF002204217B
:1019FC00114800F04CFB012208210F4800F047FB76
:101A0C00012210210C4800F042FB002220210A4840
:101A1C0000F03DFB01224021074800F038FB012279
:101A2C008021054800F033FB01220221024800F01E
:101A3C002EFB00BF80BD00BF00080140FFF7EAF895
:101A4C000B480C490C4A002302E0D458C450043310
:101A5C00C4188C42F9D3094A094C002301E01360E5
:101A6C000432A242FBD301F005FBFEF781FF704765
:101A7C0000000020CC0000200C310008CC0000201D
:101A8C0090010020FEE7000080B500AF084B1B68FA
:101A9C00074A43F010031360032000F023F90F20D2
:101AAC0000F008F8FFF74EF80023184680BD00BF81
:101ABC000020024080B582B000AF7860124B1A68EB
:101ACC00124B1B7819464FF47A73B3FBF1F3B2FB4C
:101ADC00F3F3184600F03BF90346002B01D0012329
:101AEC000EE07B680F2B0AD8002279684FF0FF308C
:101AFC0000F003F9064A7B681360002300E0012321
:101B0C0018460837BD4680BDB8000020C80000202C
:101B1C00C400002080B400AF054B1B781A46054B5F
:101B2C001B681344034A136000BFBD4680BC70475A
:101B3C00C80000208C01002080B400AF024B1B6851
:101B4C001846BD4680BC70478C01002080B485B01F
:101B5C0000AF78607B6803F00703FB600C4BDB681D
:101B6C00BB60BA684FF6FF031340BB60FB681A02F8
:101B7C00BB68134343F0BF6343F40033BB60044AB8
:101B8C00BB68D36000BF1437BD4680BC704700BF34
:101B9C0000ED00E080B400AF044BDB681B0A03F0DF
:101BAC0007031846BD4680BC704700BF00ED00E03F
:101BBC0080B483B000AF0346FB7197F90730002B5C
:101BCC000BDBFB7903F01F02064997F907305B0921
:101BDC00012000FA02F241F8232000BF0C37BD4669
:101BEC0080BC704700E100E080B483B000AF0346D6
:101BFC003960FB7197F90730002B0ADB3B68DAB2CE
:101C0C000C4997F907301201D2B20B4483F8002328
:101C1C000AE03B68DAB20849FB7903F00F03043B96
:101C2C001201D2B20B441A7600BF0C37BD4680BCF1
:101C3C00704700BF00E100E000ED00E080B489B027
:101C4C0000AFF860B9607A60FB6803F00703FB61D2
:101C5C00FB69C3F10703042B28BF0423BB61FB6999
:101C6C000433062B02D9FB69033B00E000237B61A4
:101C7C004FF0FF32BB6902FA03F3DA43BB681A4038
:101C8C007B699A404FF0FF317B6901FA03F3D9432A
:101C9C007B680B40134318462437BD4680BC704705
:101CAC0080B582B000AF78607B68013BB3F1807F78
:101CBC0001D301230FE00A4A7B68013B53600F21DB
:101CCC004FF0FF30FFF790FF054B00229A60044B5A
:101CDC0007221A60002318460837BD4680BD00BF96
:101CEC0010E000E080B582B000AF78607868FFF754
:101CFC002DFF00BF0837BD4680BD80B586B000AF54
:101D0C000346B9607A60FB7300237B61FFF742FFE7
:101D1C0078617A68B9687869FFF790FF024697F99D
:101D2C000F3011461846FFF75FFF00BF1837BD464E
:101D3C0080BD80B582B000AF0346FB7197F90730C8
:101D4C001846FFF735FF00BF0837BD4680BD80B58C
:101D5C0082B000AF78607868FFF7A2FF03461846A0
:101D6C000837BD4680BD000080B48BB000AF7860F2
:101D7C00396000237B6200233B6261E101227B6AB4
:101D8C0002FA03F3FB613B681B68FA691340BB6101
:101D9C00BA69FB699A4240F050813B685B68974A8C
:101DAC0093425ED0954A934275D8954A934258D047
:101DBC00934A93426FD8934A934252D0914A93429A
:101DCC0069D8914A93424CD08F4A934263D88F4A38
:101DDC00934246D08D4A93425DD8122B2AD8122BAF
:101DEC0059D801A252F823F06F1E0008491E0008B2
:101DFC005B1E00089D1E0008A31E0008A31E000801
:101E0C00A31E0008A31E0008A31E0008A31E0008A2
:101E1C00A31E0008A31E0008A31E0008A31E000892
:101E2C00A31E0008A31E0008A31E0008511E0008D4
:101E3C00651E0008764A934213D02CE03B68DB68A1
:101E4C003B6229E03B68DB6804333B6224E03B687F
:101E5C00DB6808333B621FE03B68DB680C333B629A
:101E6C001AE03B689B68002B02D104233B6213E011
:101E7C003B689B68012B05D108233B627B68FA69A0
:101E8C001A6109E008233B627B68FA695A6103E036
:101E9C0000233B6200E000BFBB69FF2B01D87B68CD
:101EAC0001E07B6804337B61BB69FF2B02D87B6A42
:101EBC009B0002E07B6A083B9B003B617B691A68D4
:101ECC000F213B6901FA03F3DB431A40396A3B6982
:101EDC0001FA03F31A437B691A603B685B6803F0F1
:101EEC008053002B00F0A9804A4B9B69494A43F070
:101EFC0001039361474B9B6903F00103BB60BB6813
:101F0C00454A7B6A9B08023352F82330FB607B6A9C
:101F1C0003F003039B000F2202FA03F3DB43FA687E
:101F2C001340FB607B683D4A93420DD07B683C4A72
:101F3C00934207D07B683B4A934201D1022304E0D1
:101F4C00032302E0012300E000237A6A02F003027B
:101F5C0092009340FA681343FB602F497B6A9B08FD
:101F6C000233FA6841F823203B685B6803F4801362
:101F7C00002B06D02C4B9A682B49BB6913438B6002
:101F8C0006E0294B9A68BB69DB43274913408B60F9
:101F9C003B685B6803F40013002B06D0224BDA6815
:101FAC002149BB691343CB6006E01F4BDA68BB6960
:101FBC00DB431D491340CB603B685B6803F4003383
:101FCC00002B06D0184B5A681749BB6913434B605A
:101FDC0006E0154B5A68BB69DB43134913404B6051
:101FEC003B685B6803F48033002B1FD00E4B1A68E0
:101FFC000D49BB6913430B601FE000BF000032109A
:10200C0000003110000022100000211000001210FE
:10201C0000001110001002400000014000080140B7
:10202C00000C014000100140000401400B4B1A68E9
:10203C00BB69DB43094913400B607B6A01337B624C
:10204C003B681A687B6A22FA03F3002B7FF496AE86
:10205C0000BF00BF2C37BD4680BC70470004014058
:10206C0080B485B000AF78600B467B807B689A6843
:10207C007B881340002B02D00123FB7301E000236B
:10208C00FB73FB7B18461437BD4680BC704780B48D
:10209C0083B000AF78600B467B8013467B707B78F7
:1020AC00002B03D07A887B681A6103E07B881A04C2
:1020BC007B681A6100BF0C37BD4680BC704780B48A
:1020CC0085B000AF78600B467B807B68DB68FB607B
:1020DC007A88FB6813401A04FB68D9437B880B4051
:1020EC001A437B681A6100BF1437BD4680BC704729
:1020FC0080B586B000AF78607B68002B01D10123DE
:10210C0072E27B681B6803F00103002B00F08780F0
:10211C00924B5B6803F00C03042B0CD08F4B5B6869
:10212C0003F00C03082B12D18C4B5B6803F4803347
:10213C00B3F5803F0BD1894B1B6803F40033002BA4
:10214C006CD07B685B68002B68D101234CE27B6808
:10215C005B68B3F5803F06D1804B1B687F4A43F424
:10216C00803313602EE07B685B68002B0CD17B4BBB
:10217C001B687A4A23F480331360784B1B68774AC8
:10218C0023F4802313601DE07B685B68B3F5A02FFC
:10219C000CD1724B1B68714A43F4802313606F4B54
:1021AC001B686E4A43F4803313600BE06B4B1B6867
:1021BC006A4A23F480331360684B1B68674A23F424
:1021CC00802313607B685B68002B13D0FFF7B4FC93
:1021DC00386108E0FFF7B0FC02463B69D31A642B68
:1021EC0001D9032300E25D4B1B6803F40033002B81
:1021FC00F0D014E0FFF7A0FC386108E0FFF79CFC7E
:10220C0002463B69D31A642B01D90323ECE1534BEF
:10221C001B6803F40033002BF0D100E000BF7B6897
:10222C001B6803F00203002B63D04C4B5B6803F07C
:10223C000C03002B0BD0494B5B6803F00C03082BF1
:10224C001CD1464B5B6803F48033002B16D1434BF7
:10225C001B6803F00203002B05D07B681B69012B64
:10226C0001D00123C0E13D4B1B6823F0F8027B68D1
:10227C005B69DB00394913430B603AE07B681B69EF
:10228C00002B20D0364B01221A60FFF755FC386129
:10229C0008E0FFF751FC02463B69D31A022B01D927
:1022AC000323A1E12D4B1B6803F00203002BF0D09C
:1022BC002A4B1B6823F0F8027B685B69DB0027491B
:1022CC0013430B6015E0264B00221A60FFF734FC19
:1022DC00386108E0FFF730FC02463B69D31A022B49
:1022EC0001D9032380E11D4B1B6803F00203002B73
:1022FC00F0D17B681B6803F00803002B3AD07B6895
:10230C009B69002B19D0174B01221A60FFF714FCA4
:10231C00386108E0FFF710FC02463B69D31A022B28
:10232C0001D9032360E10D4B5B6A03F00203002B20
:10233C00F0D0012000F09CFA1CE00A4B00221A603D
:10234C00FFF7FAFB38610FE0FFF7F6FB02463B693B
:10235C00D31A022B08D9032346E100BF0010024018
:10236C000000424280044242924B5B6A03F002033B
:10237C00002BE9D17B681B6803F00403002B00F0F1
:10238C00A6800023FB758B4BDB6903F08053002B7D
:10239C000DD1884BDB69874A43F08053D361854B61
:1023AC00DB6903F08053BB60BB680123FB75824B78
:1023BC001B6803F48073002B18D17F4B1B687E4A7B
:1023CC0043F480731360FFF7B7FB386108E0FFF745
:1023DC00B3FB02463B69D31A642B01D9032303E1F7
:1023EC00754B1B6803F48073002BF0D07B68DB68A3
:1023FC00012B06D16F4B1B6A6E4A43F0010313622B
:10240C002DE07B68DB68002B0CD16A4B1B6A694A98
:10241C0023F001031362674B1B6A664A23F0040323
:10242C0013621CE07B68DB68052B0CD1614B1B6ACB
:10243C00604A43F0040313625E4B1B6A5D4A43F02F
:10244C00010313620BE05B4B1B6A5A4A23F0010336
:10245C001362584B1B6A574A23F0040313627B68C0
:10246C00DB68002B15D0FFF767FB38610AE0FFF73C
:10247C0063FB02463B69D31A41F28832934201D97D
:10248C000323B1E04B4B1B6A03F00203002BEED08D
:10249C0014E0FFF751FB38610AE0FFF74DFB0246F1
:1024AC003B69D31A41F28832934201D903239BE052
:1024BC00404B1B6A03F00203002BEED1FB7D012B7A
:1024CC0005D13C4BDB693B4A23F08053D3617B68DD
:1024DC00DB69002B00F08780364B5B6803F00C0344
:1024EC00082B61D07B68DB69022B46D1334B002271
:1024FC001A60FFF721FB386108E0FFF71DFB02466D
:10250C003B69D31A022B01D903236DE0294B1B68BD
:10251C0003F00073002BF0D17B681B6AB3F5803F8E
:10252C0008D1244B5B6823F400327B689B682149FB
:10253C0013434B601F4B5B6823F474127B68196A5E
:10254C007B685B6A0B431B4913434B601B4B01229B
:10255C001A60FFF7F1FA386108E0FFF7EDFA02466E
:10256C003B69D31A022B01D903233DE0114B1B68A5
:10257C0003F00073002BF0D035E0104B00221A60F2
:10258C00FFF7DAFA386108E0FFF7D6FA02463B6942
:10259C00D31A022B01D9032326E0064B1B6803F048
:1025AC000073002BF0D11EE07B68DB69012B07D197
:1025BC00012319E00010024000700040600042420C
:1025CC000B4B5B68FB60FB6803F480327B681B6A17
:1025DC009A4206D1FB6803F470127B685B6A9A42DC
:1025EC0001D0012300E0002318461837BD4680BDFA
:1025FC000010024080B584B000AF786039607B6811
:10260C00002B01D10123D0E06A4B1B6803F00703B8
:10261C003A689A4210D9674B1B6823F00702654948
:10262C003B6813430B60634B1B6803F007033A686A
:10263C009A4201D00123B8E07B681B6803F00203C7
:10264C00002B20D07B681B6803F00403002B05D003
:10265C00594B5B68584A43F4E06353607B681B68D2
:10266C0003F00803002B05D0534B5B68524A43F42C
:10267C0060535360504B5B6823F0F0027B689B689F
:10268C004D4913434B607B681B6803F00103002B1F
:10269C0040D07B685B68012B07D1474B1B6803F468
:1026AC000033002B15D101237FE07B685B68022B84
:1026BC0007D1414B1B6803F00073002B09D1012398
:1026CC0073E03D4B1B6803F00203002B01D1012387
:1026DC006BE0394B5B6823F003027B685B6836491F
:1026EC0013434B60FFF728FAF8600AE0FFF724FA6F
:1026FC000246FB68D31A41F28832934201D9032374
:10270C0053E02D4B5B6803F00C027B685B689B000D
:10271C009A42EBD1274B1B6803F007033A689A42A5
:10272C0010D2244B1B6823F0070222493B68134349
:10273C000B60204B1B6803F007033A689A4201D0E8
:10274C00012332E07B681B6803F00403002B08D0E4
:10275C00194B5B6823F4E0627B68DB681649134312
:10276C004B607B681B6803F00803002B09D0124BED
:10277C005B6823F460527B681B69DB000E491343D2
:10278C004B6000F021F802460B4B5B681B0903F011
:10279C000F030A49CB5C22FA03F3094A1360094B75
:1027AC001B681846FFF786F9002318461037BD46FC
:1027BC0080BD00BF0020024000100240E030000845
:1027CC00B8000020C400002080B487B000AF002304
:1027DC00FB600023BB6000237B6100237B60002334
:1027EC003B611E4B5B68FB60FB6803F00C03042B26
:1027FC0002D0082B03D027E0194B3B6127E0FB6884
:10280C009B0C03F00F03174AD35C7B60FB6803F44B
:10281C008033002B10D0114B5B685B0C03F0010371
:10282C00114AD35CBB607B680D4A03FB02F2BB68A8
:10283C00B2FBF3F37B6104E07B680C4A02FB03F30D
:10284C007B617B693B6102E0054B3B6100BF3B69EF
:10285C0018461C37BD4680BC704700BF00100240B4
:10286C0000127A00F03000080031000800093D0029
:10287C0080B485B000AF78600A4B1B680A4AA2FB93
:10288C0003235B0A7A6802FB03F3FB6000BFFB685F
:10289C005A1EFA60002BF9D100BF00BF1437BD4699
:1028AC0080BC7047B8000020D34D621080B582B058
:1028BC0000AF78607B68002B01D1012341E07B687D
:1028CC0093F83D30DBB2002B06D17B68002283F8F5
:1028DC003C207868FEF7F0F97B68022283F83D20F3
:1028EC007B681A687B6804331946104600F056FA68
:1028FC007B68012283F846207B68012283F83E2006
:10290C007B68012283F83F207B68012283F84020FA
:10291C007B68012283F841207B68012283F84220E6
:10292C007B68012283F843207B68012283F84420D2
:10293C007B68012283F845207B68012283F83D20C7
:10294C00002318460837BD4680BD000080B485B012
:10295C0000AF78607B6893F83D30DBB2012B01D07F
:10296C00012335E07B68022283F83D207B681B68DD
:10297C00DA687B681B6842F00102DA607B681B68CE
:10298C00164A934209D07B681B68B3F1804F04D080
:10299C007B681B68124A934211D17B681B689B6849
:1029AC0003F00703FB60FB68062B10D07B681B68E9
:1029BC001A687B681B6842F001021A6007E07B68AA
:1029CC001B681A687B681B6842F001021A600023BE
:1029DC0018461437BD4680BC704700BF002C014020
:1029EC000004004080B584B000AF78607B681B6841
:1029FC00DB68FB607B681B681B69BB60BB6803F012
:102A0C000203002B20D0FB6803F00203002B1BD029
:102A1C007B681B686FF002021A617B6801221A77CF
:102A2C007B681B689B6903F00303002B03D0786859
:102A3C0000F098F905E0786800F08BF9786800F000
:102A4C009AF97B6800221A77BB6803F00403002B09
:102A5C0020D0FB6803F00403002B1BD07B681B68A1
:102A6C006FF004021A617B6802221A777B681B687C
:102A7C009B6903F44073002B03D0786800F072F963
:102A8C0005E0786800F065F9786800F074F97B6807
:102A9C0000221A77BB6803F00803002B20D0FB68D8
:102AAC0003F00803002B1BD07B681B686FF0080237
:102ABC001A617B6804221A777B681B68DB6903F058
:102ACC000303002B03D0786800F04CF905E078681C
:102ADC0000F03FF9786800F04EF97B6800221A7715
:102AEC00BB6803F01003002B20D0FB6803F010032D
:102AFC00002B1BD07B681B686FF010021A617B687F
:102B0C0008221A777B681B68DB6903F44073002B7F
:102B1C0003D0786800F026F905E0786800F019F920
:102B2C00786800F028F97B6800221A77BB6803F0FC
:102B3C000103002B0CD0FB6803F00103002B07D022
:102B4C007B681B686FF001021A617868FDF7EAFF79
:102B5C00BB6803F08003002B0CD0FB6803F08003F0
:102B6C00002B07D07B681B686FF080021A617868B5
:102B7C0000F06FFABB6803F04003002B0CD0FB682D
:102B8C0003F04003002B07D07B681B686FF04002FA
:102B9C001A61786800F0F8F8BB6803F02003002B8A
:102BAC000CD0FB6803F02003002B07D07B681B685C
:102BBC006FF020021A61786800F042FA00BF1037FB
:102BCC00BD4680BD80B584B000AF7860396000230D
:102BDC00FB737B6893F83C30012B01D10223B4E0EA
:102BEC007B68012283F83C207B68022283F83D201D
:102BFC007B681B689B68BB60BB6823F07703BB607A
:102C0C00BB6823F47F43BB607B681B68BA689A601F
:102C1C003B681B68B3F5005F3ED0B3F5005F00F274
:102C2C008780B3F5805F00F08680B3F5805F7FD836
:102C3C00702B1AD0702B7BD8602B50D0602B77D890
:102C4C00502B3CD0502B73D8402B58D0402B6FD8E6
:102C5C00302B64D0302B6BD8202B60D0202B67D836
:102C6C00002B5CD0102B5AD062E07B6818683B6854
:102C7C0099683B685A683B68DB6800F06AF97B68C6
:102C8C001B689B68BB60BB6843F07703BB607B68C9
:102C9C001B68BA689A604FE07B6818683B68996853
:102CAC003B685A683B68DB6800F053F97B681B682B
:102CBC009A687B681B6842F480429A603CE07B68AF
:102CCC0018683B6859683B68DB681A4600F0CAF81C
:102CDC007B681B685021184600F021F92CE07B68BA
:102CEC0018683B6859683B68DB681A4600F0E8F8DE
:102CFC007B681B686021184600F011F91CE07B68AA
:102D0C0018683B6859683B68DB681A4600F0AAF8FB
:102D1C007B681B684021184600F001F90CE07B68C9
:102D2C001A683B681B681946104600F0F8F803E077
:102D3C000123FB7300E000BF7B68012283F83D2078
:102D4C007B68002283F83C20FB7B18461037BD467D
:102D5C0080BD80B483B000AF786000BF0C37BD4637
:102D6C0080BC704780B483B000AF786000BF0C3774
:102D7C00BD4680BC704780B483B000AF786000BFA4
:102D8C000C37BD4680BC704780B483B000AF786010
:102D9C0000BF0C37BD4680BC7047000080B485B0C6
:102DAC0000AF786039607B681B68FB607B682B4ADE
:102DBC00934207D07B68B3F1804F03D07B68284ADD
:102DCC00934208D1FB6823F07003FB603B685B689F
:102DDC00FA681343FB607B68204A934207D07B68F8
:102DEC00B3F1804F03D07B681D4A934208D1FB6836
:102DFC0023F44073FB603B68DB68FA681343FB60A9
:102E0C00FB6823F080023B685B691343FB607B68C3
:102E1C00FA681A603B689A687B68DA623B681A68E1
:102E2C007B689A627B680D4A934203D13B681A69AE
:102E3C007B681A637B6801225A617B681B6903F00B
:102E4C000103002B05D07B681B6923F001027B6812
:102E5C001A6100BF1437BD4680BC7047002C01407E
:102E6C000004004080B487B000AFF860B9607A60AD
:102E7C00FB681B6A7B61FB681B6A23F00102FB6821
:102E8C001A62FB689B693B613B6923F0F0033B6171
:102E9C007B681B013A6913433B617B6923F00A038E
:102EAC007B617A69BB6813437B61FB683A699A6101
:102EBC00FB687A691A6200BF1C37BD4680BC70473C
:102ECC0080B487B000AFF860B9607A60FB681B6AA9
:102EDC007B61FB681B6A23F01002FB681A62FB68BB
:102EEC009B693B613B6923F470433B617B681B032B
:102EFC003A6913433B617B6923F0A0037B61BB6898
:102F0C001B017A6913437B61FB683A699A61FB6820
:102F1C007A691A6200BF1C37BD4680BC704780B40A
:102F2C0085B000AF786039607B689B68FB60FB689C
:102F3C0023F07003FB603A68FB68134343F007030C
:102F4C00FB607B68FA689A6000BF1437BD4680BC92
:102F5C00704780B487B000AFF860B9607A603B60AE
:102F6C00FB689B687B617B6923F47F437B613B68D7
:102F7C001A027B681A43BB6813437A6913437B615B
:102F8C00FB687A699A6000BF1C37BD4680BC7047ED
:102F9C0080B485B000AF786039607B6893F83C30C2
:102FAC00012B01D1022341E07B68012283F83C20F4
:102FBC007B68022283F83D207B681B685B68FB60A2
:102FCC007B681B689B68BB60FB6823F07003FB602D
:102FDC003B681B68FA681343FB607B681B68FA68E4
:102FEC005A607B681B68144A934209D07B681B6843
:102FFC00B3F1804F04D07B681B68104A93420CD10C
:10300C00BB6823F08003BB603B685B68BA68134302
:10301C00BB607B681B68BA689A607B68012283F886
:10302C003D207B68002283F83C200023184614378F
:10303C00BD4680BC704700BF002C0140000400401E
:10304C0080B483B000AF786000BF0C37BD4680BC45
:10305C00704780B483B000AF786000BF0C37BD46BA
:10306C0080BC704703460244934200D1704703F87A
:10307C00011BF9E770B500260C4D0D4C641BA41018
:10308C00A64209D100F01AF800260A4D0A4C641B1E
:10309C00A410A64205D170BD55F8043B98470136E3
:1030AC00EEE755F8043B98470136F2E70431000887
:1030BC00043100080431000808310008F8B500BFDD
:1030CC00F8BC08BC9E467047F8B500BFF8BC08BCFD
:0430DC009E46704755
:1030E00000000000000000000102030406070809B8
:1030F00002030405060708090A0B0C0D0E0F101039
:0431000001020000C8
:04310400310100088D
:043108000D010008AD
:10310C0001000000010000000100000001000000AF
:10311C000000000000000000F4010000000C014061
:10312C000020000001000000010000000100000070
:10313C00010000000000000000000000F40100008D
:10314C00000C0140004000000100000001000000E4
:10315C000100000001000000000000000000000061
:10316C00F4010000000C0140008000000100000090
:10317C000100000001000000010000000000000040
:10318C0000000000F4010000000C014000100000E1
:10319C00010000000100000001000000010000001F
:1031AC000000000000000000F4010000000C0140D1
:1031BC00000800000100000000127A000305020D57
:0C31CC000F0200001000000001000000D5
:0400000508001A498C
:00000001FF
